:100000000C942A000C943C000C943C000C943C0092
:100010000C943C000C943C000C943C000C943C0070
:100020000C943C000C943C000C943C000C943C0060
:100030000C943C000C943C000C943C000C943C0050
:100040000C943C000C943C000C943C000C943C0040
:100050000C943C0011241FBECFE5D8E0DEBFCDBF1D
:1000600020E0A0E6B0E001C01D92A136B207E1F7A2
:100070000E94A1000C9444010C9400008AB3807E7D
:100080008ABB87B3816087BB87B3826087BB87B336
:100090008C6087BB87B3806187BB81B3806F81BB76
:1000A00081EA8FBD82E08EBD089581110DC061117E
:1000B0000BC082B38F7382BB88B3837F88BB1BBCAA
:1000C0001ABC19BC18BC089592B3906492BB92B349
:1000D0009F7792BB98B3986098BB98B39B7F98BB6F
:1000E00070E079BD68BD90E09BBD8ABD089582B384
:1000F0008F7B82BB82B3806882BB88B3886088BBF9
:1001000088B38B7F88BB88E790E099BD88BD9BBD95
:100110008ABD089582B3806482BB82B38F7782BB2D
:1001200088B3877F88BB88B3846088BB88E790E00A
:1001300099BD88BD9BBD8ABD089589B380958F7197
:1001400008950E943E0080E019C098B3916098BB6A
:100150002FEF31EE94E0215030409040E1F700C0A5
:10016000000098B39E7F98BB2FEF31EE94E02150B2
:1001700030409040E1F700C000008F5F833028F3EB
:1001800088B3816088BB89B3809582FF0BC088B338
:100190008D7F88BB88B38F7E88BB68E788E70E9425
:1001A0005500F1CF81FF0DC01092600088B38D7FA4
:1001B00088BB88B38F7E88BB62E88CE30E945500C1
:1001C000E2CF83FF0EC081E08093600088B38D7F13
:1001D00088BB88B38F7E88BB6CE382E80E945500A1
:1001E000D2CF80FF0DC01092600088B38D7F88BB96
:1001F00088B38F7E88BB66E980E00E945500C3CF3C
:1002000084FF0EC081E08093600088B38D7F88BB3F
:1002100088B38F7E88BB60E086E90E945500B3CF2B
:1002200088B3806188BB21C080916000811103C0C8
:100230000E948A0002C00E94770088B3826088BB57
:100240002FE738E381E0215030408040E1F700C0E3
:10025000000088B38D7F88BB9FE728E331E0915091
:1002600020403040E1F700C000000E949D0088233C
:10027000D9F260E080E00E94550088B38F7E88BB91
:0C02800088B38D7F88BB7FCFF894FFCF40
:00000001FF
